{
  "contractName": "NFTSale",
  "abi": [
    {
      "inputs": [
        {
          "internalType": "contract IAdmealNFT",
          "name": "_token",
          "type": "address"
        }
      ],
      "stateMutability": "nonpayable",
      "type": "constructor"
    },
    {
      "anonymous": false,
      "inputs": [
        {
          "indexed": true,
          "internalType": "address",
          "name": "previousOwner",
          "type": "address"
        },
        {
          "indexed": true,
          "internalType": "address",
          "name": "newOwner",
          "type": "address"
        }
      ],
      "name": "OwnershipTransferred",
      "type": "event"
    },
    {
      "anonymous": false,
      "inputs": [
        {
          "indexed": true,
          "internalType": "address",
          "name": "buyer",
          "type": "address"
        },
        {
          "indexed": false,
          "internalType": "uint256",
          "name": "amount",
          "type": "uint256"
        },
        {
          "indexed": false,
          "internalType": "string",
          "name": "currency",
          "type": "string"
        }
      ],
      "name": "TokenBought",
      "type": "event"
    },
    {
      "inputs": [],
      "name": "isEnabled",
      "outputs": [
        {
          "internalType": "bool",
          "name": "",
          "type": "bool"
        }
      ],
      "stateMutability": "view",
      "type": "function",
      "constant": true
    },
    {
      "inputs": [],
      "name": "maxSupply",
      "outputs": [
        {
          "internalType": "uint256",
          "name": "",
          "type": "uint256"
        }
      ],
      "stateMutability": "view",
      "type": "function",
      "constant": true
    },
    {
      "inputs": [],
      "name": "owner",
      "outputs": [
        {
          "internalType": "address",
          "name": "",
          "type": "address"
        }
      ],
      "stateMutability": "view",
      "type": "function",
      "constant": true
    },
    {
      "inputs": [],
      "name": "renounceOwnership",
      "outputs": [],
      "stateMutability": "nonpayable",
      "type": "function"
    },
    {
      "inputs": [],
      "name": "token",
      "outputs": [
        {
          "internalType": "contract IAdmealNFT",
          "name": "",
          "type": "address"
        }
      ],
      "stateMutability": "view",
      "type": "function",
      "constant": true
    },
    {
      "inputs": [],
      "name": "tokenPrice",
      "outputs": [
        {
          "internalType": "uint256",
          "name": "",
          "type": "uint256"
        }
      ],
      "stateMutability": "view",
      "type": "function",
      "constant": true
    },
    {
      "inputs": [],
      "name": "totalSupply",
      "outputs": [
        {
          "internalType": "uint256",
          "name": "",
          "type": "uint256"
        }
      ],
      "stateMutability": "view",
      "type": "function",
      "constant": true
    },
    {
      "inputs": [
        {
          "internalType": "address",
          "name": "newOwner",
          "type": "address"
        }
      ],
      "name": "transferOwnership",
      "outputs": [],
      "stateMutability": "nonpayable",
      "type": "function"
    },
    {
      "inputs": [
        {
          "internalType": "address",
          "name": "",
          "type": "address"
        }
      ],
      "name": "whitelist",
      "outputs": [
        {
          "internalType": "bool",
          "name": "",
          "type": "bool"
        }
      ],
      "stateMutability": "view",
      "type": "function",
      "constant": true
    },
    {
      "inputs": [
        {
          "internalType": "uint256",
          "name": "_amount",
          "type": "uint256"
        }
      ],
      "name": "buyInETH",
      "outputs": [],
      "stateMutability": "payable",
      "type": "function",
      "payable": true
    },
    {
      "inputs": [
        {
          "internalType": "bool",
          "name": "_isEnabled",
          "type": "bool"
        }
      ],
      "name": "toggleSale",
      "outputs": [],
      "stateMutability": "nonpayable",
      "type": "function"
    },
    {
      "inputs": [
        {
          "internalType": "uint256",
          "name": "_tokenPrice",
          "type": "uint256"
        }
      ],
      "name": "setTokenPrice",
      "outputs": [],
      "stateMutability": "nonpayable",
      "type": "function"
    },
    {
      "inputs": [
        {
          "internalType": "uint256",
          "name": "_maxSupply",
          "type": "uint256"
        }
      ],
      "name": "setMaxSupply",
      "outputs": [],
      "stateMutability": "nonpayable",
      "type": "function"
    },
    {
      "inputs": [
        {
          "internalType": "address[]",
          "name": "toAddAddresses",
          "type": "address[]"
        }
      ],
      "name": "addToWhitelist",
      "outputs": [],
      "stateMutability": "nonpayable",
      "type": "function"
    },
    {
      "inputs": [
        {
          "internalType": "address[]",
          "name": "toRemoveAddresses",
          "type": "address[]"
        }
      ],
      "name": "removeFromWhitelist",
      "outputs": [],
      "stateMutability": "nonpayable",
      "type": "function"
    }
  ],
  "bytecode": "0x6080604052655af3107a400060035561138860045560006005553480156200002657600080fd5b50604051620015283803806200152883398181016040528101906200004c919062000208565b60016000819055506200007462000068620000bc60201b60201c565b620000c460201b60201c565b80600260006101000a81548173ffffffffffffffffffffffffffffffffffffffff021916908373ffffffffffffffffffffffffffffffffffffffff160217905550506200023a565b600033905090565b6000600160009054906101000a900473ffffffffffffffffffffffffffffffffffffffff16905081600160006101000a81548173ffffffffffffffffffffffffffffffffffffffff021916908373ffffffffffffffffffffffffffffffffffffffff1602179055508173ffffffffffffffffffffffffffffffffffffffff168173ffffffffffffffffffffffffffffffffffffffff167f8be0079c531659141344cd1fd0a4f28419497f9722a3daafe3b4186f6b6457e060405160405180910390a35050565b600080fd5b600073ffffffffffffffffffffffffffffffffffffffff82169050919050565b6000620001bc826200018f565b9050919050565b6000620001d082620001af565b9050919050565b620001e281620001c3565b8114620001ee57600080fd5b50565b6000815190506200020281620001d7565b92915050565b6000602082840312156200022157620002206200018a565b5b60006200023184828501620001f1565b91505092915050565b6112de806200024a6000396000f3fe6080604052600436106100e85760003560e01c80637ff9b5961161008a578063d5abeb0111610059578063d5abeb01146102ba578063f057adbb146102e5578063f2fde38b14610301578063fc0c546a1461032a576100e8565b80637ff9b596146101fe5780638da5cb5b146102295780639b19251a14610254578063aab402e514610291576100e8565b80636aa633b6116100c65780636aa633b61461016a5780636f8b44b014610195578063715018a6146101be5780637f649783146101d5576100e8565b806318160ddd146100ed578063548db174146101185780636a61e5fc14610141575b600080fd5b3480156100f957600080fd5b50610102610355565b60405161010f9190610a61565b60405180910390f35b34801561012457600080fd5b5061013f600480360381019061013a9190610aeb565b61035b565b005b34801561014d57600080fd5b5061016860048036038101906101639190610b64565b6103ff565b005b34801561017657600080fd5b5061017f610411565b60405161018c9190610bac565b60405180910390f35b3480156101a157600080fd5b506101bc60048036038101906101b79190610b64565b610424565b005b3480156101ca57600080fd5b506101d3610436565b005b3480156101e157600080fd5b506101fc60048036038101906101f79190610aeb565b61044a565b005b34801561020a57600080fd5b506102136104f7565b6040516102209190610a61565b60405180910390f35b34801561023557600080fd5b5061023e6104fd565b60405161024b9190610c08565b60405180910390f35b34801561026057600080fd5b5061027b60048036038101906102769190610c4f565b610527565b6040516102889190610bac565b60405180910390f35b34801561029d57600080fd5b506102b860048036038101906102b39190610ca8565b610547565b005b3480156102c657600080fd5b506102cf61056c565b6040516102dc9190610a61565b60405180910390f35b6102ff60048036038101906102fa9190610b64565b610572565b005b34801561030d57600080fd5b5061032860048036038101906103239190610c4f565b6107fa565b005b34801561033657600080fd5b5061033f61087d565b60405161034c9190610d34565b60405180910390f35b60055481565b6103636108a3565b60005b828290508110156103fa576006600084848481811061038857610387610d4f565b5b905060200201602081019061039d9190610c4f565b73ffffffffffffffffffffffffffffffffffffffff1673ffffffffffffffffffffffffffffffffffffffff16815260200190815260200160002060006101000a81549060ff021916905580806103f290610dad565b915050610366565b505050565b6104076108a3565b8060038190555050565b600260149054906101000a900460ff1681565b61042c6108a3565b8060048190555050565b61043e6108a3565b6104486000610921565b565b6104526108a3565b60005b828290508110156104f25760016006600085858581811061047957610478610d4f565b5b905060200201602081019061048e9190610c4f565b73ffffffffffffffffffffffffffffffffffffffff1673ffffffffffffffffffffffffffffffffffffffff16815260200190815260200160002060006101000a81548160ff02191690831515021790555080806104ea90610dad565b915050610455565b505050565b60035481565b6000600160009054906101000a900473ffffffffffffffffffffffffffffffffffffffff16905090565b60066020528060005260406000206000915054906101000a900460ff1681565b61054f6108a3565b80600260146101000a81548160ff02191690831515021790555050565b60045481565b61057a6109e7565b600260149054906101000a900460ff166105c9576040517f08c379a00000000000000000000000000000000000000000000000000000000081526004016105c090610e52565b60405180910390fd5b600660003373ffffffffffffffffffffffffffffffffffffffff1673ffffffffffffffffffffffffffffffffffffffff16815260200190815260200160002060009054906101000a900460ff16610655576040517f08c379a000000000000000000000000000000000000000000000000000000000815260040161064c90610ebe565b60405180910390fd5b806003546106639190610ede565b34146106a4576040517f08c379a000000000000000000000000000000000000000000000000000000000815260040161069b90610f92565b60405180910390fd5b600454816005546106b59190610fb2565b11156106f6576040517f08c379a00000000000000000000000000000000000000000000000000000000081526004016106ed90611032565b60405180910390fd5b600260009054906101000a900473ffffffffffffffffffffffffffffffffffffffff1673ffffffffffffffffffffffffffffffffffffffff1663156e29f6336000846040518463ffffffff1660e01b81526004016107569392919061108d565b600060405180830381600087803b15801561077057600080fd5b505af1158015610784573d6000803e3d6000fd5b50505050806005600082825461079a9190610fb2565b925050819055503373ffffffffffffffffffffffffffffffffffffffff167f6bb43a3553844cacb0db65ac84b2f083140d02c665e72fa18009403fb9807af2826040516107e79190611110565b60405180910390a26107f7610a36565b50565b6108026108a3565b600073ffffffffffffffffffffffffffffffffffffffff168173ffffffffffffffffffffffffffffffffffffffff1603610871576040517f08c379a0000000000000000000000000000000000000000000000000000000008152600401610868906111b0565b60405180910390fd5b61087a81610921565b50565b600260009054906101000a900473ffffffffffffffffffffffffffffffffffffffff1681565b6108ab610a40565b73ffffffffffffffffffffffffffffffffffffffff166108c96104fd565b73ffffffffffffffffffffffffffffffffffffffff161461091f576040517f08c379a00000000000000000000000000000000000000000000000000000000081526004016109169061121c565b60405180910390fd5b565b6000600160009054906101000a900473ffffffffffffffffffffffffffffffffffffffff16905081600160006101000a81548173ffffffffffffffffffffffffffffffffffffffff021916908373ffffffffffffffffffffffffffffffffffffffff1602179055508173ffffffffffffffffffffffffffffffffffffffff168173ffffffffffffffffffffffffffffffffffffffff167f8be0079c531659141344cd1fd0a4f28419497f9722a3daafe3b4186f6b6457e060405160405180910390a35050565b600260005403610a2c576040517f08c379a0000000000000000000000000000000000000000000000000000000008152600401610a2390611288565b60405180910390fd5b6002600081905550565b6001600081905550565b600033905090565b6000819050919050565b610a5b81610a48565b82525050565b6000602082019050610a766000830184610a52565b92915050565b600080fd5b600080fd5b600080fd5b600080fd5b600080fd5b60008083601f840112610aab57610aaa610a86565b5b8235905067ffffffffffffffff811115610ac857610ac7610a8b565b5b602083019150836020820283011115610ae457610ae3610a90565b5b9250929050565b60008060208385031215610b0257610b01610a7c565b5b600083013567ffffffffffffffff811115610b2057610b1f610a81565b5b610b2c85828601610a95565b92509250509250929050565b610b4181610a48565b8114610b4c57600080fd5b50565b600081359050610b5e81610b38565b92915050565b600060208284031215610b7a57610b79610a7c565b5b6000610b8884828501610b4f565b91505092915050565b60008115159050919050565b610ba681610b91565b82525050565b6000602082019050610bc16000830184610b9d565b92915050565b600073ffffffffffffffffffffffffffffffffffffffff82169050919050565b6000610bf282610bc7565b9050919050565b610c0281610be7565b82525050565b6000602082019050610c1d6000830184610bf9565b92915050565b610c2c81610be7565b8114610c3757600080fd5b50565b600081359050610c4981610c23565b92915050565b600060208284031215610c6557610c64610a7c565b5b6000610c7384828501610c3a565b91505092915050565b610c8581610b91565b8114610c9057600080fd5b50565b600081359050610ca281610c7c565b92915050565b600060208284031215610cbe57610cbd610a7c565b5b6000610ccc84828501610c93565b91505092915050565b6000819050919050565b6000610cfa610cf5610cf084610bc7565b610cd5565b610bc7565b9050919050565b6000610d0c82610cdf565b9050919050565b6000610d1e82610d01565b9050919050565b610d2e81610d13565b82525050565b6000602082019050610d496000830184610d25565b92915050565b7f4e487b7100000000000000000000000000000000000000000000000000000000600052603260045260246000fd5b7f4e487b7100000000000000000000000000000000000000000000000000000000600052601160045260246000fd5b6000610db882610a48565b91507fffffffffffffffffffffffffffffffffffffffffffffffffffffffffffffffff8203610dea57610de9610d7e565b5b600182019050919050565b600082825260208201905092915050565b7f4e465453616c653a2053616c652069732064697361626c656400000000000000600082015250565b6000610e3c601983610df5565b9150610e4782610e06565b602082019050919050565b60006020820190508181036000830152610e6b81610e2f565b9050919050565b7f4e465453616c653a206e6f7420696e2077686974656c69737400000000000000600082015250565b6000610ea8601983610df5565b9150610eb382610e72565b602082019050919050565b60006020820190508181036000830152610ed781610e9b565b9050919050565b6000610ee982610a48565b9150610ef483610a48565b9250828202610f0281610a48565b91508282048414831517610f1957610f18610d7e565b5b5092915050565b7f4e465453616c653a2076616c7565206973206e6f742073616d6520617320746860008201527f6520746f6b656e20707269636500000000000000000000000000000000000000602082015250565b6000610f7c602d83610df5565b9150610f8782610f20565b604082019050919050565b60006020820190508181036000830152610fab81610f6f565b9050919050565b6000610fbd82610a48565b9150610fc883610a48565b9250828201905080821115610fe057610fdf610d7e565b5b92915050565b7f4e465453616c653a206e6f20746f6b656e73206c656674000000000000000000600082015250565b600061101c601783610df5565b915061102782610fe6565b602082019050919050565b6000602082019050818103600083015261104b8161100f565b9050919050565b6000819050919050565b600061107761107261106d84611052565b610cd5565b610a48565b9050919050565b6110878161105c565b82525050565b60006060820190506110a26000830186610bf9565b6110af602083018561107e565b6110bc6040830184610a52565b949350505050565b7f4554480000000000000000000000000000000000000000000000000000000000600082015250565b60006110fa600383610df5565b9150611105826110c4565b602082019050919050565b60006040820190506111256000830184610a52565b8181036020830152611136816110ed565b905092915050565b7f4f776e61626c653a206e6577206f776e657220697320746865207a65726f206160008201527f6464726573730000000000000000000000000000000000000000000000000000602082015250565b600061119a602683610df5565b91506111a58261113e565b604082019050919050565b600060208201905081810360008301526111c98161118d565b9050919050565b7f4f776e61626c653a2063616c6c6572206973206e6f7420746865206f776e6572600082015250565b6000611206602083610df5565b9150611211826111d0565b602082019050919050565b60006020820190508181036000830152611235816111f9565b9050919050565b7f5265656e7472616e637947756172643a207265656e7472616e742063616c6c00600082015250565b6000611272601f83610df5565b915061127d8261123c565b602082019050919050565b600060208201905081810360008301526112a181611265565b905091905056fea2646970667358221220081fa7c2dbc118ff32054ff1301212acc066b89e84a8750f8df221063b11ceb464736f6c63430008120033",
  "immutableReferences": {},
  "source": "// SPDX-License-Identifier: UNLICENSED\r\npragma solidity >=0.4.22 <0.9.0;\r\n\r\nimport \"@openzeppelin/contracts/security/ReentrancyGuard.sol\";\r\nimport \"@openzeppelin/contracts/access/Ownable.sol\";\r\nimport \"../interfaces/IAdmealNFT.sol\";\r\n\r\n/**\r\n * @title NFT Sale Contract\r\n */\r\ncontract NFTSale is ReentrancyGuard, Ownable {\r\n    event TokenBought(address indexed buyer, uint256 amount, string currency);\r\n\r\n    // Admal NFT Object\r\n    IAdmealNFT public token;\r\n\r\n    // Status of the sale\r\n    bool public isEnabled;\r\n\r\n    // Price of Admeal NFT\r\n    uint256 public tokenPrice = 0.0001 ether;\r\n\r\n    // Max supply\r\n    uint256 public maxSupply = 5000;\r\n\r\n    // Current supply\r\n    uint256 public totalSupply = 0;\r\n\r\n    mapping(address => bool) public whitelist;\r\n\r\n    modifier whenEnabled() {\r\n        require(isEnabled, \"NFTSale: Sale is disabled\");\r\n        _;\r\n    }\r\n\r\n    modifier isWhiteListed() {\r\n        require(whitelist[msg.sender], \"NFTSale: not in whitelist\");\r\n        _;\r\n    }\r\n\r\n    /**\r\n     * @dev Constructor function\r\n     */\r\n    constructor(IAdmealNFT _token) {\r\n        token = _token;\r\n    }\r\n\r\n    /**\r\n     * @dev Buy Admeal NFT in ETH\r\n     */\r\n    function buyInETH(\r\n        uint256 _amount\r\n    ) external payable nonReentrant whenEnabled isWhiteListed {\r\n        require(\r\n            msg.value == tokenPrice * _amount,\r\n            \"NFTSale: value is not same as the token price\"\r\n        );\r\n\r\n        require(totalSupply + _amount <= maxSupply, \"NFTSale: no tokens left\");\r\n\r\n        token.mint(msg.sender, 0, _amount);\r\n        totalSupply += _amount;\r\n\r\n        emit TokenBought(msg.sender, _amount, \"ETH\");\r\n    }\r\n\r\n    /**\r\n     * @dev Enable or disable sale\r\n     */\r\n    function toggleSale(bool _isEnabled) external onlyOwner {\r\n        isEnabled = _isEnabled;\r\n    }\r\n\r\n    /**\r\n     * @dev Set token price\r\n     */\r\n    function setTokenPrice(uint256 _tokenPrice) external onlyOwner {\r\n        tokenPrice = _tokenPrice;\r\n    }\r\n\r\n    /**\r\n     * @dev Set max supply\r\n     */\r\n    function setMaxSupply(uint256 _maxSupply) external onlyOwner {\r\n        maxSupply = _maxSupply;\r\n    }\r\n\r\n    /**\r\n     * @dev Add to whitelist\r\n     */\r\n    function addToWhitelist(\r\n        address[] calldata toAddAddresses\r\n    ) external onlyOwner {\r\n        for (uint i = 0; i < toAddAddresses.length; i++) {\r\n            whitelist[toAddAddresses[i]] = true;\r\n        }\r\n    }\r\n\r\n    /**\r\n     * @dev Remove from whitelist\r\n     */\r\n    function removeFromWhitelist(\r\n        address[] calldata toRemoveAddresses\r\n    ) external onlyOwner {\r\n        for (uint i = 0; i < toRemoveAddresses.length; i++) {\r\n            delete whitelist[toRemoveAddresses[i]];\r\n        }\r\n    }\r\n}\r\n",
  "sourcePath": "C:\\work\\Admeal\\admeal-nft\\contracts\\sale\\NFTSale.sol",
  "compiler": {
    "name": "solc",
    "version": "0.8.18+commit.87f61d96.Emscripten.clang"
  },
  "schemaVersion": "3.4.13",
  "updatedAt": "2023-05-01T06:03:05.371Z",
  "networkType": "ethereum",
  "devdoc": {
    "kind": "dev",
    "methods": {
      "addToWhitelist(address[])": {
        "details": "Add to whitelist"
      },
      "buyInETH(uint256)": {
        "details": "Buy Admeal NFT in ETH"
      },
      "constructor": {
        "details": "Constructor function"
      },
      "owner()": {
        "details": "Returns the address of the current owner."
      },
      "removeFromWhitelist(address[])": {
        "details": "Remove from whitelist"
      },
      "renounceOwnership()": {
        "details": "Leaves the contract without owner. It will not be possible to call `onlyOwner` functions anymore. Can only be called by the current owner. NOTE: Renouncing ownership will leave the contract without an owner, thereby removing any functionality that is only available to the owner."
      },
      "setMaxSupply(uint256)": {
        "details": "Set max supply"
      },
      "setTokenPrice(uint256)": {
        "details": "Set token price"
      },
      "toggleSale(bool)": {
        "details": "Enable or disable sale"
      },
      "transferOwnership(address)": {
        "details": "Transfers ownership of the contract to a new account (`newOwner`). Can only be called by the current owner."
      }
    },
    "title": "NFT Sale Contract",
    "version": 1
  },
  "userdoc": {
    "kind": "user",
    "methods": {},
    "version": 1
  }
}